:100000000C9434000C943E000C943E000C943E0082
:100010000C943E000C943E000C943E000C943E0068
:100020000C943E000C943E000C943E000C943E0058
:100030000C943E000C943E000C943E000C943E0048
:100040000C943E000C943E000C943E000C943E0038
:100050000C943E000C943E000C943E000C943E0028
:100060000C943E000C943E0011241FBECFEFD8E04C
:10007000DEBFCDBF0E9478000C9482000C9400007B
:1000800081E091E0089581E090E1089580E190E1C0
:10009000089580E191E00895FC01613041F581E02F
:1000A00091E09183808387EA91E60197F1F700C0A0
:1000B000000081E090E19183808387EA91E60197D7
:1000C000F1F700C0000080E190E19183808387EA2E
:1000D00091E60197F1F700C0000080E191E0918383
:1000E000808387EA91E60197F1F700C00000089548
:1000F0008FEF84B915B841E061E085E290E00E949D
:080100004C00F9CFF894FFCF89
:00000001FF
